:020000040000FA
:10000000020E7D7B381202B07B391202B07B1412D3
:1000100002B07B731202B07B561202B07B6C1202EC
:10002000B07B381202B07B011202B07B0C7A00E484
:09003000FDFC7F7CFE0202B822F7
:10003B0002019E1203081202D0120003120349752B
:10004B00D108750D33750C33750B53750A401201BE
:10005B00161202AEAF18AE17AD16AC15120ADC8E27
:10006B00088F091202237B2E7A007D407C007F7C57
:10007B007E001202B8AC08AD09EC120AA3A804A9C1
:10008B0005AA06AB07AF18AE17AD16AC15120803D1
:10009B008F268E258D248C23752D00752E01AF2672
:1000AB00AE25AD24AC23E4FBFA792078411208F895
:1000BB008F268E258D248C23120ADC8E128F131221
:1000CB000223AF26AE25AD24AC23C004C005C00669
:1000DB00C007AC12AD13EC120AA3A804A905AA061B
:1000EB00AB07D007D006D005D0041208038F268E9D
:1000FB00258D248C23052EE52E7002052DD394031C
:10010B00E52D648094804096020059E4F522F52198
:10011B00F520F51FF52D752E01D2EC20ECFDAFBDB2
:10012B00AEBEE48F118E10F50FF50EAD0FAC0E12A7
:10013B000A9EAB0DAA0CA90BA80A1208F87B007A31
:10014B00C0797F7844120A018F338E328D318C3017
:10015B00AF22AE21AD20AC1FAB33AA32A931A830F0
:10016B001208078F228E218D208C1F052EE52E70F5
:10017B0002052D6481452D70A0E4FBFAF97843AF9D
:10018B0022AE21AD20AC1F120A018F188E178D16CF
:10019B008C1522C0E0C0D075D000C000E5C054F073
:1001AB002480604824C0601724E07063851AC2C2A3
:1001BB00C5753400753501753600753701805030C3
:1001CB00C122D3E53595287480F86534985015E530
:1001DB003525E02419F808E6F5C20535E53570023A
:1001EB000534802BE5286027D2C48023D3E53794D0
:1001FB0001E53664809480500F85C22FD2C105373C
:10020B00E53770020536800785C227C2C1D2C4C24A
:10021B00C0D000D0D0D0E032EE705EEFB40A005008
:10022B0058900233F8282873020251020255020239
:10023B005902025D02026102026502026902026D4D
:10024B000202710202757B3080227B31801E7B3271
:10025B00801A7B3380167B3480127B35800E7B3685
:10026B00800A7B3780067B3880027B397A007D40A1
:10027B007C007F7C7E001202B8225388CF5389F01A
:10028B00438901438E04EF4E6016C28C758CA075AA
:10029B008A4CC28DD28C308DFDEF1F70E91E80E62B
:1002AB00C28C227B807A00E4FDFC7F7CFE8E198F52
:1002BB001A8C1B8D1C8A1D8B1E752802D2C57F0ABA
:1002CB007E0002028585A73812037812033F1203C2
:1002DB005C12031B1202EF12036312036A12037107
:1002EB008538A722E59154045391FB759538759485
:1002FB009E75933875929E43910442912285A7383F
:10030B0012035312037F1203351203298538A722D8
:10031B00AF88758800758DBC758B348F8822E4F59A
:10032B00A9E5A95480648070F82243B280E5B254E9
:10033B004060FA2275A50275F2EF75D50722759606
:10034B000C75971175E88022E4F5A753D9BFF5D941
:10035B002275E34075E104227589204388402253BE
:10036B00C1FC43C1DD2275E68175A88022E4F5A7A7
:08037B0075D4E72275C91022B8
:10080000020B48E86480F8E933E83360110460F0D3
:10081000ED33EC337009E8FCE9FDEAFEEBFF22045E
:1008200060DED3EB9FEA9EE99DE8C2E78CF0C2F759
:1008300095F0400CE8CCF8E9CDF9EACEFAEBCFFB25
:10084000120B1385D0F05804700320D5B3E8047060
:10085000075002B2D5020B5292D5EC0460F7E4CCFB
:10086000C0E0C398F8603B94186008400DD0E0FBEE
:10087000020B2AE4FBFAC9FC8028E830E406E4C94C
:10088000FBE4CAFCE830E305E4C9CACBFCE8540742
:100890006010F8C3E913F9EA13FAEB13FBEC13FC4D
:1008A000D8F130F52FC3E49CFCEF9BFFEE9AFEEDF0
:1008B00099FDD0E0FBEF4E4D4C701222DB03020B92
:1008C0004FEC2CFCEF33FFEE33FEED33FDED30E764
:1008D000EB020B2AEF2BFFEE3AFEED39FDD0E0FBE9
:1008E00050130BBB0003020B52ED13FDEE13FEEF92
:1008F00013FFEC13FC020B2AEC4D6011E849701752
:10090000ED33EC3304600DE4FCFFFEFD22E933E837
:10091000330470F8020B48120B1358046009E4CC3E
:1009200024815006285009020B52284003020B4F25
:10093000C0E0EB4A7044B98006D0E0FB020B3EEF0A
:100940004E701CBD8008EBFFEAFEE9FD80EBE98DEF
:10095000F0A4FEE5F00209E1E9CDF9EAFEEBFFEFD4
:1009600089F0A4FCE5F0CE89F0A42EFFE435F0CDAB
:1009700089F0A42DFEE435F08067EF4E7005BD8050
:10098000D780C3EF8BF0A4ACF0EE8BF0A42CFCE48A
:1009900035F0F8EF8AF0A42CE5F038FCE433CB8D89
:1009A000F0A42CFCE5F03BF8EE8AF0A42CFCE5F07A
:1009B00038F8E433CF89F0A42CFCE5F038CF3400CC
:1009C000CE89F0A42FFFE5F03EFEE433C98DF0A4FC
:1009D0002EFEE5F039CD8AF0A42FFFE5F03EFEE4CF
:1009E0003DFD33D0E0FB50070BBB000F020B52EC78
:1009F0002CFCEF33FFEE33FEED33FD020B2A020B2E
:100A000052EC5D046005E859047003020B48120BB8
:100A100013580460F6EC4860F2EC7004FDFEFF220F
:100A2000C860DB2481C85009C39860025006020BDD
:100A30004F9850CAF582E9294B4A7005AB82020BE8
:100A40003E75F0007C1A7880C3EF9BEE9AED9940DA
:100A50000DC3EF9BFFEE9AFEED99FDE842F0DC231B
:100A6000ACF0D0E0FFD0E0FED0E0FDAB8220E7109C
:100A70001BEB60BAEC2CFCEF33FFEE33FEED33FDE5
:100A8000020B2AE803F830E705C0F075F000EF2FFD
:100A9000FFEE33FEED33FD40B830E7C280AA75F0BB
:100AA00020800E75F010800575F0087D007E007FB7
:100AB000003392D530D503120B5DEC334010EF3389
:100AC000FFEE33FEED33FDEC33FCD5F0ED22E5F027
:100AD000247EA2D513CC92E7CDCEFF22EDD2E7CD76
:100AE00033EC3392D524814006E4FFFEFDFC22FC6A
:100AF000E4CFCECDCC24E0501174FF80EDC3CC13F5
:100B0000CCCD13CDCE13CECF13CF0470F030D5DEC5
:100B1000020B5DE9D2E7C933E833F892D5EDD2E7AD
:100B2000CD33EC33FC5002B2D522EC30E7100FBFCE
:100B3000000C0EBE00080DBD00040BEB6014A2D526
:100B4000EB13FCED92E7FD2274FFFCFDFEFF22E4B7
:100B500080F8A2D574FF13FC7D80E480EFC3E49F8E
:0B0B6000FFE49EFEE49DFDE49CFC22EF
:0F0E7D00120038787FE4F6D8FD75813802003E08
:00000001FF
