:020000040000FA
:10000000020E707B381202A37B391202A37B1412FA
:1000100002A37B731202A37B561202A37B6C120213
:10002000A37B381202A37B011202A37B0C7A00E4AB
:09003000FDFC7F7CFE0202AB2204
:10003B000201161202FB1202C312000312033C75DB
:10004B00D108750D33750C33750B53750A401201BE
:10005B009B1202A1AF18AE17AD16AC15120ADC8EAF
:10006B00088F091202167B2E7A007D407C007F7C64
:10007B007E001202ABAC08AD09EC120AA3A804A9CE
:10008B0005AA06AB07AF18AE17AD16AC15120803D1
:10009B008F268E258D248C23752D00752E01AF2672
:1000AB00AE25AD24AC23E4FBFA792078411208F895
:1000BB008F268E258D248C23120ADC8E128F131221
:1000CB000216AF26AE25AD24AC23C004C005C00676
:1000DB00C007AC12AD13EC120AA3A804A905AA061B
:1000EB00AB07D007D006D005D0041208038F268E9D
:1000FB00258D248C23052EE52E7002052DD394031C
:10010B00E52D648094804096020059C0E0C0D07504
:10011B00D000C000E5C054F02480604824C06017B4
:10012B0024E07063851AC2C2C5753400753501753C
:10013B003600753701805030C122D3E535952874D0
:10014B0080F86534985015E53525E02419F808E654
:10015B00F5C20535E53570020534802BE52860279F
:10016B00D2C48023D3E5379401E536648094805064
:10017B000F85C22FD2C10537E537700205368007D0
:10018B0085C227C2C1D2C4C2C0D000D0D0D0E03209
:10019B00E4F522F521F520F51FF52D752E01D2EC96
:1001AB0020ECFDAFBDAEBEE48F118E10F50FF50E3A
:1001BB00AD0FAC0E120A9EAB0DAA0CA90BA80A121E
:1001CB0008F87B007AC0797F7844120A018F338E4E
:1001DB00328D318C30AF22AE21AD20AC1FAB33AAA8
:1001EB0032A931A8301208078F228E218D208C1F47
:1001FB00052EE52E7002052D6402452D70A085227B
:10020B0018852117852016851F1522EE705EEFB419
:10021B000A005058900226F8282873020244020262
:10022B004802024C02025002025402025802025CC3
:10023B000202600202640202687B3080227B318002
:10024B001E7B32801A7B3380167B3480127B358089
:10025B000E7B36800A7B3780067B3880027B397AAF
:10026B00007D407C007F7C7E001202AB225388CF46
:10027B005389F0438901438E04EF4E6016C28C758F
:10028B008CA0758A4CC28DD28C308DFDEF1F70E91E
:10029B001E80E6C28C227B807A00E4FDFC7F7CFE14
:1002AB008E198F1A8C1B8D1C8A1D8B1E752802D2E2
:1002BB00C57F0A7E0002027885A73812036B1203F2
:1002CB003212034F12030E1202E212035612035D97
:1002DB001203648538A722E59154045391FB75955D
:1002EB003875949E75933875929E43910442912272
:1002FB0085A73812034612037212032812031C85BA
:10030B0038A722AF88758800758DBC758B348F88A4
:10031B0022E4F5A9E5A95480648070F82243B280E9
:10032B00E5B2544060FA2275A50275F2EF75D50758
:10033B002275960C75971175E88022E4F5A753D9B1
:10034B00BFF5D92275E34075E104227589204388F6
:10035B00402253C1FC43C1DD2275E68175A8802282
:0B036B00E4F5A775D4E72275C9102245
:10080000020B48E86480F8E933E83360110460F0D3
:10081000ED33EC337009E8FCE9FDEAFEEBFF22045E
:1008200060DED3EB9FEA9EE99DE8C2E78CF0C2F759
:1008300095F0400CE8CCF8E9CDF9EACEFAEBCFFB25
:10084000120B1385D0F05804700320D5B3E8047060
:10085000075002B2D5020B5292D5EC0460F7E4CCFB
:10086000C0E0C398F8603B94186008400DD0E0FBEE
:10087000020B2AE4FBFAC9FC8028E830E406E4C94C
:10088000FBE4CAFCE830E305E4C9CACBFCE8540742
:100890006010F8C3E913F9EA13FAEB13FBEC13FC4D
:1008A000D8F130F52FC3E49CFCEF9BFFEE9AFEEDF0
:1008B00099FDD0E0FBEF4E4D4C701222DB03020B92
:1008C0004FEC2CFCEF33FFEE33FEED33FDED30E764
:1008D000EB020B2AEF2BFFEE3AFEED39FDD0E0FBE9
:1008E00050130BBB0003020B52ED13FDEE13FEEF92
:1008F00013FFEC13FC020B2AEC4D6011E849701752
:10090000ED33EC3304600DE4FCFFFEFD22E933E837
:10091000330470F8020B48120B1358046009E4CC3E
:1009200024815006285009020B52284003020B4F25
:10093000C0E0EB4A7044B98006D0E0FB020B3EEF0A
:100940004E701CBD8008EBFFEAFEE9FD80EBE98DEF
:10095000F0A4FEE5F00209E1E9CDF9EAFEEBFFEFD4
:1009600089F0A4FCE5F0CE89F0A42EFFE435F0CDAB
:1009700089F0A42DFEE435F08067EF4E7005BD8050
:10098000D780C3EF8BF0A4ACF0EE8BF0A42CFCE48A
:1009900035F0F8EF8AF0A42CE5F038FCE433CB8D89
:1009A000F0A42CFCE5F03BF8EE8AF0A42CFCE5F07A
:1009B00038F8E433CF89F0A42CFCE5F038CF3400CC
:1009C000CE89F0A42FFFE5F03EFEE433C98DF0A4FC
:1009D0002EFEE5F039CD8AF0A42FFFE5F03EFEE4CF
:1009E0003DFD33D0E0FB50070BBB000F020B52EC78
:1009F0002CFCEF33FFEE33FEED33FD020B2A020B2E
:100A000052EC5D046005E859047003020B48120BB8
:100A100013580460F6EC4860F2EC7004FDFEFF220F
:100A2000C860DB2481C85009C39860025006020BDD
:100A30004F9850CAF582E9294B4A7005AB82020BE8
:100A40003E75F0007C1A7880C3EF9BEE9AED9940DA
:100A50000DC3EF9BFFEE9AFEED99FDE842F0DC231B
:100A6000ACF0D0E0FFD0E0FED0E0FDAB8220E7109C
:100A70001BEB60BAEC2CFCEF33FFEE33FEED33FDE5
:100A8000020B2AE803F830E705C0F075F000EF2FFD
:100A9000FFEE33FEED33FD40B830E7C280AA75F0BB
:100AA00020800E75F010800575F0087D007E007FB7
:100AB000003392D530D503120B5DEC334010EF3389
:100AC000FFEE33FEED33FDEC33FCD5F0ED22E5F027
:100AD000247EA2D513CC92E7CDCEFF22EDD2E7CD76
:100AE00033EC3392D524814006E4FFFEFDFC22FC6A
:100AF000E4CFCECDCC24E0501174FF80EDC3CC13F5
:100B0000CCCD13CDCE13CECF13CF0470F030D5DEC5
:100B1000020B5DE9D2E7C933E833F892D5EDD2E7AD
:100B2000CD33EC33FC5002B2D522EC30E7100FBFCE
:100B3000000C0EBE00080DBD00040BEB6014A2D526
:100B4000EB13FCED92E7FD2274FFFCFDFEFF22E4B7
:100B500080F8A2D574FF13FC7D80E480EFC3E49F8E
:0B0B6000FFE49EFEE49DFDE49CFC22EF
:0F0E7000120038787FE4F6D8FD75813802003E15
:00000001FF
