:020000040000FA
:1000000002088E85A7081200BB12008C12009F12F6
:10001000006812003C1200A61200AD1200B4850860
:10002000A722120055120003C2917FE87E03120836
:1000300000D2917FE87E0312080080ECE591540421
:100040005391FB75953875949E75933875929E43C0
:10005000910442912285A7081200961200C2120054
:10006000821200768508A722AF88758800758DBC3E
:10007000758B348F8822E4F5A9E5A95480648070DB
:10008000F82243B280E5B2544060FA2275A50275A9
:10009000F2EF75D51722E4F5A753D9BFF5D922752C
:1000A000E34075E104227589204388402253C1FC56
:1000B00043C1DD2275E68175A88022E4F5A775D4D9
:0700C000E72275C91022229E
:100800005388CF5389F0438901438E04EF4E60161D
:10081000C28C758CA0758A4CC28DD28C308DFDEF48
:090820001F70E91E80E6C28C2263
:0F088E001200C6787FE4F6D8FD758108020022BB
:00000001FF
